{
  "_format": "hh-sol-artifact-1",
  "contractName": "Contract",
  "sourceName": "src/Contract.sol",
  "abi": [
    {
      "inputs": [],
      "name": "Mid",
      "outputs": [
        {
          "internalType": "bool",
          "name": "",
          "type": "bool"
        }
      ],
      "stateMutability": "view",
      "type": "function"
    },
    {
      "inputs": [
        {
          "internalType": "uint256",
          "name": "",
          "type": "uint256"
        }
      ],
      "name": "Orders",
      "outputs": [
        {
          "internalType": "uint64",
          "name": "id",
          "type": "uint64"
        },
        {
          "internalType": "address",
          "name": "producer",
          "type": "address"
        },
        {
          "internalType": "address",
          "name": "holder",
          "type": "address"
        },
        {
          "internalType": "address",
          "name": "consumer",
          "type": "address"
        },
        {
          "internalType": "string",
          "name": "status",
          "type": "string"
        },
        {
          "internalType": "string",
          "name": "timestamp",
          "type": "string"
        }
      ],
      "stateMutability": "view",
      "type": "function"
    },
    {
      "inputs": [],
      "name": "Prod",
      "outputs": [
        {
          "internalType": "bool",
          "name": "",
          "type": "bool"
        }
      ],
      "stateMutability": "view",
      "type": "function"
    },
    {
      "inputs": [
        {
          "internalType": "uint64",
          "name": "_id",
          "type": "uint64"
        },
        {
          "internalType": "string",
          "name": "_timestamp",
          "type": "string"
        }
      ],
      "name": "deliveredOrder",
      "outputs": [],
      "stateMutability": "nonpayable",
      "type": "function"
    },
    {
      "inputs": [],
      "name": "makeMiddleMan",
      "outputs": [],
      "stateMutability": "nonpayable",
      "type": "function"
    },
    {
      "inputs": [],
      "name": "makeProducer",
      "outputs": [],
      "stateMutability": "nonpayable",
      "type": "function"
    },
    {
      "inputs": [],
      "name": "orderCount",
      "outputs": [
        {
          "internalType": "uint64",
          "name": "",
          "type": "uint64"
        }
      ],
      "stateMutability": "view",
      "type": "function"
    },
    {
      "inputs": [
        {
          "internalType": "uint64",
          "name": "_id",
          "type": "uint64"
        },
        {
          "internalType": "string",
          "name": "_timestamp",
          "type": "string"
        }
      ],
      "name": "passOrder",
      "outputs": [],
      "stateMutability": "nonpayable",
      "type": "function"
    },
    {
      "inputs": [
        {
          "internalType": "address",
          "name": "_consumer",
          "type": "address"
        },
        {
          "internalType": "string",
          "name": "_timestamp",
          "type": "string"
        }
      ],
      "name": "placeOrder",
      "outputs": [],
      "stateMutability": "nonpayable",
      "type": "function"
    }
  ],
  "bytecode": "0x608060405234801561001057600080fd5b506111b0806100206000396000f3fe608060405234801561001057600080fd5b50600436106100935760003560e01c806379307a471161006657806379307a471461010e5780638a1367f61461012a5780638fb326f214610134578063ab80ff7614610169578063fe2560a11461018557610093565b806318d670d3146100985780632453ffa8146100b6578063410ea748146100d457806362d239ae146100f2575b600080fd5b6100a061018f565b6040516100ad9190610c02565b60405180910390f35b6100be6101e3565b6040516100cb9190610c40565b60405180910390f35b6100dc6101fb565b6040516100e99190610c02565b60405180910390f35b61010c60048036038101906101079190610de1565b61024f565b005b61012860048036038101906101239190610e9b565b6103a5565b005b610132610726565b005b61014e60048036038101906101499190610f2d565b610780565b60405161016096959493929190610ff1565b60405180910390f35b610183600480360381019061017e9190610de1565b610950565b005b61018d610aea565b005b6000600360003373ffffffffffffffffffffffffffffffffffffffff1673ffffffffffffffffffffffffffffffffffffffff16815260200190815260200160002060009054906101000a900460ff16905090565b60008054906101000a900467ffffffffffffffff1681565b6000600260003373ffffffffffffffffffffffffffffffffffffffff1673ffffffffffffffffffffffffffffffffffffffff16815260200190815260200160002060009054906101000a900460ff16905090565b818061025a9061108f565b92505060018267ffffffffffffffff168154811061027b5761027a6110b9565b5b906000526020600020906005020160020160009054906101000a900473ffffffffffffffffffffffffffffffffffffffff1673ffffffffffffffffffffffffffffffffffffffff163373ffffffffffffffffffffffffffffffffffffffff16146102e457600080fd5b6040518060400160405280601881526020017f4f7264657220486173204265656e2044656c697665726564000000000000000081525060018367ffffffffffffffff1681548110610338576103376110b9565b5b9060005260206000209060050201600301908051906020019061035c929190610b44565b508060018367ffffffffffffffff168154811061037c5761037b6110b9565b5b906000526020600020906005020160040190805190602001906103a0929190610b44565b505050565b60011515600260003373ffffffffffffffffffffffffffffffffffffffff1673ffffffffffffffffffffffffffffffffffffffff16815260200190815260200160002060009054906101000a900460ff1615151461040257600080fd5b60008081819054906101000a900467ffffffffffffffff1680929190610427906110e8565b91906101000a81548167ffffffffffffffff021916908367ffffffffffffffff1602179055505060016040518060c0016040528060008054906101000a900467ffffffffffffffff1667ffffffffffffffff1681526020013373ffffffffffffffffffffffffffffffffffffffff1681526020013373ffffffffffffffffffffffffffffffffffffffff1681526020018473ffffffffffffffffffffffffffffffffffffffff1681526020016040518060400160405280600e81526020017f4f72646572204163636570746564000000000000000000000000000000000000815250815260200183815250908060018154018082558091505060019003906000526020600020906005020160009091909190915060008201518160000160006101000a81548167ffffffffffffffff021916908367ffffffffffffffff16021790555060208201518160000160086101000a81548173ffffffffffffffffffffffffffffffffffffffff021916908373ffffffffffffffffffffffffffffffffffffffff16021790555060408201518160010160006101000a81548173ffffffffffffffffffffffffffffffffffffffff021916908373ffffffffffffffffffffffffffffffffffffffff16021790555060608201518160020160006101000a81548173ffffffffffffffffffffffffffffffffffffffff021916908373ffffffffffffffffffffffffffffffffffffffff160217905550608082015181600301908051906020019061065b929190610b44565b5060a0820151816004019080519060200190610678929190610b44565b505050600460008373ffffffffffffffffffffffffffffffffffffffff1673ffffffffffffffffffffffffffffffffffffffff16815260200190815260200160002060008054906101000a900467ffffffffffffffff1690806001815401808255809150506001900390600052602060002090600491828204019190066008029091909190916101000a81548167ffffffffffffffff021916908367ffffffffffffffff1602179055505050565b6001600260003373ffffffffffffffffffffffffffffffffffffffff1673ffffffffffffffffffffffffffffffffffffffff16815260200190815260200160002060006101000a81548160ff021916908315150217905550565b6001818154811061079057600080fd5b90600052602060002090600502016000915090508060000160009054906101000a900467ffffffffffffffff16908060000160089054906101000a900473ffffffffffffffffffffffffffffffffffffffff16908060010160009054906101000a900473ffffffffffffffffffffffffffffffffffffffff16908060020160009054906101000a900473ffffffffffffffffffffffffffffffffffffffff169080600301805461083f90611148565b80601f016020809104026020016040519081016040528092919081815260200182805461086b90611148565b80156108b85780601f1061088d576101008083540402835291602001916108b8565b820191906000526020600020905b81548152906001019060200180831161089b57829003601f168201915b5050505050908060040180546108cd90611148565b80601f01602080910402602001604051908101604052809291908181526020018280546108f990611148565b80156109465780601f1061091b57610100808354040283529160200191610946565b820191906000526020600020905b81548152906001019060200180831161092957829003601f168201915b5050505050905086565b60011515600360003373ffffffffffffffffffffffffffffffffffffffff1673ffffffffffffffffffffffffffffffffffffffff16815260200190815260200160002060009054906101000a900460ff161515146109ad57600080fd5b81806109b89061108f565b9250503360018367ffffffffffffffff16815481106109da576109d96110b9565b5b906000526020600020906005020160010160006101000a81548173ffffffffffffffffffffffffffffffffffffffff021916908373ffffffffffffffffffffffffffffffffffffffff1602179055506040518060400160405280601881526020017f4f72646572204973204265696e672044656c697665726564000000000000000081525060018367ffffffffffffffff1681548110610a7d57610a7c6110b9565b5b90600052602060002090600502016003019080519060200190610aa1929190610b44565b508060018367ffffffffffffffff1681548110610ac157610ac06110b9565b5b90600052602060002090600502016004019080519060200190610ae5929190610b44565b505050565b6001600360003373ffffffffffffffffffffffffffffffffffffffff1673ffffffffffffffffffffffffffffffffffffffff16815260200190815260200160002060006101000a81548160ff021916908315150217905550565b828054610b5090611148565b90600052602060002090601f016020900481019282610b725760008555610bb9565b82601f10610b8b57805160ff1916838001178555610bb9565b82800160010185558215610bb9579182015b82811115610bb8578251825591602001919060010190610b9d565b5b509050610bc69190610bca565b5090565b5b80821115610be3576000816000905550600101610bcb565b5090565b60008115159050919050565b610bfc81610be7565b82525050565b6000602082019050610c176000830184610bf3565b92915050565b600067ffffffffffffffff82169050919050565b610c3a81610c1d565b82525050565b6000602082019050610c556000830184610c31565b92915050565b6000604051905090565b600080fd5b600080fd5b610c7881610c1d565b8114610c8357600080fd5b50565b600081359050610c9581610c6f565b92915050565b600080fd5b600080fd5b6000601f19601f8301169050919050565b7f4e487b7100000000000000000000000000000000000000000000000000000000600052604160045260246000fd5b610cee82610ca5565b810181811067ffffffffffffffff82111715610d0d57610d0c610cb6565b5b80604052505050565b6000610d20610c5b565b9050610d2c8282610ce5565b919050565b600067ffffffffffffffff821115610d4c57610d4b610cb6565b5b610d5582610ca5565b9050602081019050919050565b82818337600083830152505050565b6000610d84610d7f84610d31565b610d16565b905082815260208101848484011115610da057610d9f610ca0565b5b610dab848285610d62565b509392505050565b600082601f830112610dc857610dc7610c9b565b5b8135610dd8848260208601610d71565b91505092915050565b60008060408385031215610df857610df7610c65565b5b6000610e0685828601610c86565b925050602083013567ffffffffffffffff811115610e2757610e26610c6a565b5b610e3385828601610db3565b9150509250929050565b600073ffffffffffffffffffffffffffffffffffffffff82169050919050565b6000610e6882610e3d565b9050919050565b610e7881610e5d565b8114610e8357600080fd5b50565b600081359050610e9581610e6f565b92915050565b60008060408385031215610eb257610eb1610c65565b5b6000610ec085828601610e86565b925050602083013567ffffffffffffffff811115610ee157610ee0610c6a565b5b610eed85828601610db3565b9150509250929050565b6000819050919050565b610f0a81610ef7565b8114610f1557600080fd5b50565b600081359050610f2781610f01565b92915050565b600060208284031215610f4357610f42610c65565b5b6000610f5184828501610f18565b91505092915050565b610f6381610e5d565b82525050565b600081519050919050565b600082825260208201905092915050565b60005b83811015610fa3578082015181840152602081019050610f88565b83811115610fb2576000848401525b50505050565b6000610fc382610f69565b610fcd8185610f74565b9350610fdd818560208601610f85565b610fe681610ca5565b840191505092915050565b600060c0820190506110066000830189610c31565b6110136020830188610f5a565b6110206040830187610f5a565b61102d6060830186610f5a565b818103608083015261103f8185610fb8565b905081810360a08301526110538184610fb8565b9050979650505050505050565b7f4e487b7100000000000000000000000000000000000000000000000000000000600052601160045260246000fd5b600061109a82610c1d565b915060008214156110ae576110ad611060565b5b600182039050919050565b7f4e487b7100000000000000000000000000000000000000000000000000000000600052603260045260246000fd5b60006110f382610c1d565b915067ffffffffffffffff82141561110e5761110d611060565b5b600182019050919050565b7f4e487b7100000000000000000000000000000000000000000000000000000000600052602260045260246000fd5b6000600282049050600182168061116057607f821691505b6020821081141561117457611173611119565b5b5091905056fea264697066735822122004e2a3b1e73cc09389e32df3c570bdc0be8a2d15e518e81c32e9493c776c1aa364736f6c634300080a0033",
  "linkReferences": {},
  "deployedLinkReferences": {}
}